{
  "_format": "hh-sol-artifact-1",
  "contractName": "SimpleVoting",
  "sourceName": "contracts/SimpleVoting.sol",
  "abi": [
    {
      "inputs": [],
      "stateMutability": "nonpayable",
      "type": "constructor"
    },
    {
      "inputs": [
        {
          "internalType": "uint256",
          "name": "",
          "type": "uint256"
        }
      ],
      "name": "BODList",
      "outputs": [
        {
          "internalType": "address",
          "name": "",
          "type": "address"
        }
      ],
      "stateMutability": "view",
      "type": "function"
    },
    {
      "inputs": [
        {
          "internalType": "uint256",
          "name": "",
          "type": "uint256"
        }
      ],
      "name": "candidatesList",
      "outputs": [
        {
          "internalType": "uint256",
          "name": "candidateID",
          "type": "uint256"
        },
        {
          "internalType": "string",
          "name": "candidateName",
          "type": "string"
        },
        {
          "internalType": "address",
          "name": "registeredAddress",
          "type": "address"
        },
        {
          "internalType": "uint8",
          "name": "totalVotesReceived",
          "type": "uint8"
        },
        {
          "internalType": "uint8",
          "name": "votesReceivedBOD",
          "type": "uint8"
        },
        {
          "internalType": "uint8",
          "name": "votesReceivedTeachers",
          "type": "uint8"
        },
        {
          "internalType": "uint8",
          "name": "votesReceivedStudents",
          "type": "uint8"
        },
        {
          "internalType": "bool",
          "name": "receivedChairmansVote",
          "type": "bool"
        }
      ],
      "stateMutability": "view",
      "type": "function"
    },
    {
      "inputs": [],
      "name": "chairman",
      "outputs": [
        {
          "internalType": "address",
          "name": "",
          "type": "address"
        }
      ],
      "stateMutability": "view",
      "type": "function"
    },
    {
      "inputs": [
        {
          "internalType": "string",
          "name": "_candidateName",
          "type": "string"
        }
      ],
      "name": "createCandidate",
      "outputs": [],
      "stateMutability": "nonpayable",
      "type": "function"
    },
    {
      "inputs": [
        {
          "internalType": "address",
          "name": "_address",
          "type": "address"
        },
        {
          "internalType": "uint256",
          "name": "_role",
          "type": "uint256"
        }
      ],
      "name": "createStakeHolder",
      "outputs": [],
      "stateMutability": "nonpayable",
      "type": "function"
    },
    {
      "inputs": [],
      "name": "getListOfBOD",
      "outputs": [
        {
          "internalType": "address[]",
          "name": "",
          "type": "address[]"
        }
      ],
      "stateMutability": "view",
      "type": "function"
    },
    {
      "inputs": [],
      "name": "getListOfCandidates",
      "outputs": [
        {
          "components": [
            {
              "internalType": "uint256",
              "name": "candidateID",
              "type": "uint256"
            },
            {
              "internalType": "string",
              "name": "candidateName",
              "type": "string"
            },
            {
              "internalType": "address",
              "name": "registeredAddress",
              "type": "address"
            },
            {
              "internalType": "uint8",
              "name": "totalVotesReceived",
              "type": "uint8"
            },
            {
              "internalType": "uint8",
              "name": "votesReceivedBOD",
              "type": "uint8"
            },
            {
              "internalType": "uint8",
              "name": "votesReceivedTeachers",
              "type": "uint8"
            },
            {
              "internalType": "uint8",
              "name": "votesReceivedStudents",
              "type": "uint8"
            },
            {
              "internalType": "bool",
              "name": "receivedChairmansVote",
              "type": "bool"
            }
          ],
          "internalType": "struct SimpleVoting.Candidate[]",
          "name": "",
          "type": "tuple[]"
        }
      ],
      "stateMutability": "view",
      "type": "function"
    },
    {
      "inputs": [],
      "name": "getListOfStakeHolders",
      "outputs": [
        {
          "internalType": "address[]",
          "name": "",
          "type": "address[]"
        }
      ],
      "stateMutability": "view",
      "type": "function"
    },
    {
      "inputs": [],
      "name": "getListOfStudents",
      "outputs": [
        {
          "internalType": "address[]",
          "name": "",
          "type": "address[]"
        }
      ],
      "stateMutability": "view",
      "type": "function"
    },
    {
      "inputs": [],
      "name": "getListOfTeachers",
      "outputs": [
        {
          "internalType": "address[]",
          "name": "",
          "type": "address[]"
        }
      ],
      "stateMutability": "view",
      "type": "function"
    },
    {
      "inputs": [
        {
          "internalType": "address",
          "name": "_address",
          "type": "address"
        }
      ],
      "name": "isAStakeholder",
      "outputs": [
        {
          "internalType": "bool",
          "name": "",
          "type": "bool"
        }
      ],
      "stateMutability": "view",
      "type": "function"
    },
    {
      "inputs": [],
      "name": "resultsActive",
      "outputs": [
        {
          "internalType": "bool",
          "name": "",
          "type": "bool"
        }
      ],
      "stateMutability": "view",
      "type": "function"
    },
    {
      "inputs": [
        {
          "internalType": "address",
          "name": "",
          "type": "address"
        }
      ],
      "name": "stakeholders",
      "outputs": [
        {
          "internalType": "enum SimpleVoting.Role",
          "name": "role",
          "type": "uint8"
        },
        {
          "internalType": "bool",
          "name": "hasVoted",
          "type": "bool"
        },
        {
          "internalType": "uint256",
          "name": "candidateChosen",
          "type": "uint256"
        },
        {
          "internalType": "address",
          "name": "registeredAddress",
          "type": "address"
        }
      ],
      "stateMutability": "view",
      "type": "function"
    },
    {
      "inputs": [
        {
          "internalType": "uint256",
          "name": "",
          "type": "uint256"
        }
      ],
      "name": "stakeholdersList",
      "outputs": [
        {
          "internalType": "address",
          "name": "",
          "type": "address"
        }
      ],
      "stateMutability": "view",
      "type": "function"
    },
    {
      "inputs": [
        {
          "internalType": "uint256",
          "name": "",
          "type": "uint256"
        }
      ],
      "name": "studentList",
      "outputs": [
        {
          "internalType": "address",
          "name": "",
          "type": "address"
        }
      ],
      "stateMutability": "view",
      "type": "function"
    },
    {
      "inputs": [
        {
          "internalType": "uint256",
          "name": "",
          "type": "uint256"
        }
      ],
      "name": "teachersList",
      "outputs": [
        {
          "internalType": "address",
          "name": "",
          "type": "address"
        }
      ],
      "stateMutability": "view",
      "type": "function"
    },
    {
      "inputs": [
        {
          "internalType": "string",
          "name": "_name",
          "type": "string"
        }
      ],
      "name": "toBytes",
      "outputs": [
        {
          "internalType": "bytes",
          "name": "",
          "type": "bytes"
        }
      ],
      "stateMutability": "pure",
      "type": "function"
    },
    {
      "inputs": [],
      "name": "toggleResult",
      "outputs": [
        {
          "internalType": "bool",
          "name": "",
          "type": "bool"
        }
      ],
      "stateMutability": "nonpayable",
      "type": "function"
    },
    {
      "inputs": [],
      "name": "toggleVoting",
      "outputs": [
        {
          "internalType": "bool",
          "name": "",
          "type": "bool"
        }
      ],
      "stateMutability": "nonpayable",
      "type": "function"
    },
    {
      "inputs": [
        {
          "internalType": "uint256",
          "name": "_candidateID",
          "type": "uint256"
        }
      ],
      "name": "vote",
      "outputs": [],
      "stateMutability": "nonpayable",
      "type": "function"
    },
    {
      "inputs": [],
      "name": "votingActive",
      "outputs": [
        {
          "internalType": "bool",
          "name": "",
          "type": "bool"
        }
      ],
      "stateMutability": "view",
      "type": "function"
    }
  ],
  "bytecode": "0x60806040523480156200001157600080fd5b50336000806101000a81548173ffffffffffffffffffffffffffffffffffffffff021916908373ffffffffffffffffffffffffffffffffffffffff1602179055506000600760006101000a81548160ff0219169083151502179055506000600760016101000a81548160ff0219169083151502179055506200009b336003620000a160201b60201c565b6200080b565b60008054906101000a900473ffffffffffffffffffffffffffffffffffffffff1673ffffffffffffffffffffffffffffffffffffffff163373ffffffffffffffffffffffffffffffffffffffff161462000132576040517f08c379a00000000000000000000000000000000000000000000000000000000081526004016200012990620007af565b60405180910390fd5b604051806080016040528082600381111562000177577f4e487b7100000000000000000000000000000000000000000000000000000000600052602160045260246000fd5b6003811115620001b0577f4e487b7100000000000000000000000000000000000000000000000000000000600052602160045260246000fd5b8152602001600015158152602001600881526020013373ffffffffffffffffffffffffffffffffffffffff16815250600160008473ffffffffffffffffffffffffffffffffffffffff1673ffffffffffffffffffffffffffffffffffffffff16815260200190815260200160002060008201518160000160006101000a81548160ff0219169083600381111562000270577f4e487b7100000000000000000000000000000000000000000000000000000000600052602160045260246000fd5b021790555060208201518160000160016101000a81548160ff0219169083151502179055506040820151816001015560608201518160020160006101000a81548173ffffffffffffffffffffffffffffffffffffffff021916908373ffffffffffffffffffffffffffffffffffffffff1602179055509050506002829080600181540180825580915050600190039060005260206000200160009091909190916101000a81548173ffffffffffffffffffffffffffffffffffffffff021916908373ffffffffffffffffffffffffffffffffffffffff1602179055506000600381111562000387577f4e487b7100000000000000000000000000000000000000000000000000000000600052602160045260246000fd5b6003811115620003c0577f4e487b7100000000000000000000000000000000000000000000000000000000600052602160045260246000fd5b600160008473ffffffffffffffffffffffffffffffffffffffff1673ffffffffffffffffffffffffffffffffffffffff16815260200190815260200160002060000160009054906101000a900460ff16600381111562000449577f4e487b7100000000000000000000000000000000000000000000000000000000600052602160045260246000fd5b1415620004b4576003829080600181540180825580915050600190039060005260206000200160009091909190916101000a81548173ffffffffffffffffffffffffffffffffffffffff021916908373ffffffffffffffffffffffffffffffffffffffff1602179055505b60016003811115620004ef577f4e487b7100000000000000000000000000000000000000000000000000000000600052602160045260246000fd5b600381111562000528577f4e487b7100000000000000000000000000000000000000000000000000000000600052602160045260246000fd5b600160008473ffffffffffffffffffffffffffffffffffffffff1673ffffffffffffffffffffffffffffffffffffffff16815260200190815260200160002060000160009054906101000a900460ff166003811115620005b1577f4e487b7100000000000000000000000000000000000000000000000000000000600052602160045260246000fd5b14156200061c576004829080600181540180825580915050600190039060005260206000200160009091909190916101000a81548173ffffffffffffffffffffffffffffffffffffffff021916908373ffffffffffffffffffffffffffffffffffffffff1602179055505b6002600381111562000657577f4e487b7100000000000000000000000000000000000000000000000000000000600052602160045260246000fd5b600381111562000690577f4e487b7100000000000000000000000000000000000000000000000000000000600052602160045260246000fd5b600160008473ffffffffffffffffffffffffffffffffffffffff1673ffffffffffffffffffffffffffffffffffffffff16815260200190815260200160002060000160009054906101000a900460ff16600381111562000719577f4e487b7100000000000000000000000000000000000000000000000000000000600052602160045260246000fd5b141562000784576005829080600181540180825580915050600190039060005260206000200160009091909190916101000a81548173ffffffffffffffffffffffffffffffffffffffff021916908373ffffffffffffffffffffffffffffffffffffffff1602179055505b5050565b600062000797601a83620007d1565b9150620007a482620007e2565b602082019050919050565b60006020820190508181036000830152620007ca8162000788565b9050919050565b600082825260208201905092915050565b7f4f6e6c792043686169726d616e2063616e20646f20746869732e000000000000600082015250565b612c68806200081b6000396000f3fe608060405234801561001057600080fd5b50600436106101375760003560e01c806387f7b975116100b8578063af16dba71161007c578063af16dba714610340578063c07cfca91461035e578063df2d5ec714610391578063e2cc2680146103c8578063f0c68c22146103f8578063f8d18a7b1461041657610137565b806387f7b9751461028657806395890303146102a45780639f2e140e146102c2578063aae3bd47146102f2578063ad39a1fa1461031057610137565b8063408e2727116100ff578063408e2727146101ce57806341157aff146101ec578063480690601461020a5780635fba7a561461023a5780637df221e91461025657610137565b80630121b93f1461013c5780630e6474131461015857806315f6febd14610176578063207e8c90146101945780632f3868ca146101b0575b600080fd5b6101566004803603810190610151919061221f565b610446565b005b610160610cfa565b60405161016d9190612618565b60405180910390f35b61017e610d88565b60405161018b9190612618565b60405180910390f35b6101ae60048036038101906101a991906121a2565b610e16565b005b6101b86114eb565b6040516101c5919061263a565b60405180910390f35b6101d66116cc565b6040516101e3919061265c565b60405180910390f35b6101f46116df565b6040516102019190612618565b60405180910390f35b610224600480360381019061021f919061221f565b61176d565b60405161023191906125fd565b60405180910390f35b610254600480360381019061024f91906121de565b6117ac565b005b610270600480360381019061026b919061221f565b611a01565b60405161027d91906125fd565b60405180910390f35b61028e611a40565b60405161029b91906125fd565b60405180910390f35b6102ac611a64565b6040516102b9919061265c565b60405180910390f35b6102dc60048036038101906102d791906121de565b611a77565b6040516102e99190612677565b60405180910390f35b6102fa611aa0565b604051610307919061265c565b60405180910390f35b61032a6004803603810190610325919061221f565b611ba9565b60405161033791906125fd565b60405180910390f35b610348611be8565b6040516103559190612618565b60405180910390f35b61037860048036038101906103739190612179565b611c76565b6040516103889493929190612699565b60405180910390f35b6103ab60048036038101906103a6919061221f565b611ce0565b6040516103bf98979695949392919061275e565b60405180910390f35b6103e260048036038101906103dd9190612179565b611e21565b6040516103ef919061265c565b60405180910390f35b610400611efc565b60405161040d919061265c565b60405180910390f35b610430600480360381019061042b919061221f565b612005565b60405161043d91906125fd565b60405180910390f35b61044f33611e21565b61048e576040517f08c379a0000000000000000000000000000000000000000000000000000000008152600401610485906126fe565b60405180910390fd5b60001515600160003373ffffffffffffffffffffffffffffffffffffffff1673ffffffffffffffffffffffffffffffffffffffff16815260200190815260200160002060000160019054906101000a900460ff16151514610524576040517f08c379a000000000000000000000000000000000000000000000000000000000815260040161051b9061271e565b60405180910390fd5b60011515600760009054906101000a900460ff1615151461057a576040517f08c379a0000000000000000000000000000000000000000000000000000000008152600401610571906126de565b60405180910390fd5b60018060003373ffffffffffffffffffffffffffffffffffffffff1673ffffffffffffffffffffffffffffffffffffffff16815260200190815260200160002060000160016101000a81548160ff02191690831515021790555080600160003373ffffffffffffffffffffffffffffffffffffffff1673ffffffffffffffffffffffffffffffffffffffff16815260200190815260200160002060010181905550600160068281548110610657577f4e487b7100000000000000000000000000000000000000000000000000000000600052603260045260246000fd5b906000526020600020906003020160020160149054906101000a900460ff1661068091906128ff565b600682815481106106ba577f4e487b7100000000000000000000000000000000000000000000000000000000600052603260045260246000fd5b906000526020600020906003020160020160146101000a81548160ff021916908360ff1602179055506000600381111561071d577f4e487b7100000000000000000000000000000000000000000000000000000000600052602160045260246000fd5b6003811115610755577f4e487b7100000000000000000000000000000000000000000000000000000000600052602160045260246000fd5b600160003373ffffffffffffffffffffffffffffffffffffffff1673ffffffffffffffffffffffffffffffffffffffff16815260200190815260200160002060000160009054906101000a900460ff1660038111156107dd577f4e487b7100000000000000000000000000000000000000000000000000000000600052602160045260246000fd5b14156108ac5760016006828154811061081f577f4e487b7100000000000000000000000000000000000000000000000000000000600052603260045260246000fd5b906000526020600020906003020160020160159054906101000a900460ff1661084891906128ff565b60068281548110610882577f4e487b7100000000000000000000000000000000000000000000000000000000600052603260045260246000fd5b906000526020600020906003020160020160156101000a81548160ff021916908360ff1602179055505b600160038111156108e6577f4e487b7100000000000000000000000000000000000000000000000000000000600052602160045260246000fd5b600381111561091e577f4e487b7100000000000000000000000000000000000000000000000000000000600052602160045260246000fd5b600160003373ffffffffffffffffffffffffffffffffffffffff1673ffffffffffffffffffffffffffffffffffffffff16815260200190815260200160002060000160009054906101000a900460ff1660038111156109a6577f4e487b7100000000000000000000000000000000000000000000000000000000600052602160045260246000fd5b1415610a75576001600682815481106109e8577f4e487b7100000000000000000000000000000000000000000000000000000000600052603260045260246000fd5b906000526020600020906003020160020160169054906101000a900460ff16610a1191906128ff565b60068281548110610a4b577f4e487b7100000000000000000000000000000000000000000000000000000000600052603260045260246000fd5b906000526020600020906003020160020160166101000a81548160ff021916908360ff1602179055505b60026003811115610aaf577f4e487b7100000000000000000000000000000000000000000000000000000000600052602160045260246000fd5b6003811115610ae7577f4e487b7100000000000000000000000000000000000000000000000000000000600052602160045260246000fd5b600160003373ffffffffffffffffffffffffffffffffffffffff1673ffffffffffffffffffffffffffffffffffffffff16815260200190815260200160002060000160009054906101000a900460ff166003811115610b6f577f4e487b7100000000000000000000000000000000000000000000000000000000600052602160045260246000fd5b1415610c3e57600160068281548110610bb1577f4e487b7100000000000000000000000000000000000000000000000000000000600052603260045260246000fd5b906000526020600020906003020160020160179054906101000a900460ff16610bda91906128ff565b60068281548110610c14577f4e487b7100000000000000000000000000000000000000000000000000000000600052603260045260246000fd5b906000526020600020906003020160020160176101000a81548160ff021916908360ff1602179055505b60008054906101000a900473ffffffffffffffffffffffffffffffffffffffff1673ffffffffffffffffffffffffffffffffffffffff163373ffffffffffffffffffffffffffffffffffffffff161415610cf757600160068281548110610cce577f4e487b7100000000000000000000000000000000000000000000000000000000600052603260045260246000fd5b906000526020600020906003020160020160186101000a81548160ff0219169083151502179055505b50565b60606004805480602002602001604051908101604052809291908181526020018280548015610d7e57602002820191906000526020600020905b8160009054906101000a900473ffffffffffffffffffffffffffffffffffffffff1673ffffffffffffffffffffffffffffffffffffffff1681526020019060010190808311610d34575b5050505050905090565b60606005805480602002602001604051908101604052809291908181526020018280548015610e0c57602002820191906000526020600020905b8160009054906101000a900473ffffffffffffffffffffffffffffffffffffffff1673ffffffffffffffffffffffffffffffffffffffff1681526020019060010190808311610dc2575b5050505050905090565b60008054906101000a900473ffffffffffffffffffffffffffffffffffffffff1673ffffffffffffffffffffffffffffffffffffffff163373ffffffffffffffffffffffffffffffffffffffff1614610ea4576040517f08c379a0000000000000000000000000000000000000000000000000000000008152600401610e9b9061273e565b60405180910390fd5b6040518060800160405280826003811115610ee8577f4e487b7100000000000000000000000000000000000000000000000000000000600052602160045260246000fd5b6003811115610f20577f4e487b7100000000000000000000000000000000000000000000000000000000600052602160045260246000fd5b8152602001600015158152602001600881526020013373ffffffffffffffffffffffffffffffffffffffff16815250600160008473ffffffffffffffffffffffffffffffffffffffff1673ffffffffffffffffffffffffffffffffffffffff16815260200190815260200160002060008201518160000160006101000a81548160ff02191690836003811115610fdf577f4e487b7100000000000000000000000000000000000000000000000000000000600052602160045260246000fd5b021790555060208201518160000160016101000a81548160ff0219169083151502179055506040820151816001015560608201518160020160006101000a81548173ffffffffffffffffffffffffffffffffffffffff021916908373ffffffffffffffffffffffffffffffffffffffff1602179055509050506002829080600181540180825580915050600190039060005260206000200160009091909190916101000a81548173ffffffffffffffffffffffffffffffffffffffff021916908373ffffffffffffffffffffffffffffffffffffffff160217905550600060038111156110f5577f4e487b7100000000000000000000000000000000000000000000000000000000600052602160045260246000fd5b600381111561112d577f4e487b7100000000000000000000000000000000000000000000000000000000600052602160045260246000fd5b600160008473ffffffffffffffffffffffffffffffffffffffff1673ffffffffffffffffffffffffffffffffffffffff16815260200190815260200160002060000160009054906101000a900460ff1660038111156111b5577f4e487b7100000000000000000000000000000000000000000000000000000000600052602160045260246000fd5b141561121f576003829080600181540180825580915050600190039060005260206000200160009091909190916101000a81548173ffffffffffffffffffffffffffffffffffffffff021916908373ffffffffffffffffffffffffffffffffffffffff1602179055505b60016003811115611259577f4e487b7100000000000000000000000000000000000000000000000000000000600052602160045260246000fd5b6003811115611291577f4e487b7100000000000000000000000000000000000000000000000000000000600052602160045260246000fd5b600160008473ffffffffffffffffffffffffffffffffffffffff1673ffffffffffffffffffffffffffffffffffffffff16815260200190815260200160002060000160009054906101000a900460ff166003811115611319577f4e487b7100000000000000000000000000000000000000000000000000000000600052602160045260246000fd5b1415611383576004829080600181540180825580915050600190039060005260206000200160009091909190916101000a81548173ffffffffffffffffffffffffffffffffffffffff021916908373ffffffffffffffffffffffffffffffffffffffff1602179055505b600260038111156113bd577f4e487b7100000000000000000000000000000000000000000000000000000000600052602160045260246000fd5b60038111156113f5577f4e487b7100000000000000000000000000000000000000000000000000000000600052602160045260246000fd5b600160008473ffffffffffffffffffffffffffffffffffffffff1673ffffffffffffffffffffffffffffffffffffffff16815260200190815260200160002060000160009054906101000a900460ff16600381111561147d577f4e487b7100000000000000000000000000000000000000000000000000000000600052602160045260246000fd5b14156114e7576005829080600181540180825580915050600190039060005260206000200160009091909190916101000a81548173ffffffffffffffffffffffffffffffffffffffff021916908373ffffffffffffffffffffffffffffffffffffffff1602179055505b5050565b60606006805480602002602001604051908101604052809291908181526020016000905b828210156116c35783829060005260206000209060030201604051806101000160405290816000820154815260200160018201805461154d906129f2565b80601f0160208091040260200160405190810160405280929190818152602001828054611579906129f2565b80156115c65780601f1061159b576101008083540402835291602001916115c6565b820191906000526020600020905b8154815290600101906020018083116115a957829003601f168201915b505050505081526020016002820160009054906101000a900473ffffffffffffffffffffffffffffffffffffffff1673ffffffffffffffffffffffffffffffffffffffff1673ffffffffffffffffffffffffffffffffffffffff1681526020016002820160149054906101000a900460ff1660ff1660ff1681526020016002820160159054906101000a900460ff1660ff1660ff1681526020016002820160169054906101000a900460ff1660ff1660ff1681526020016002820160179054906101000a900460ff1660ff1660ff1681526020016002820160189054906101000a900460ff1615151515815250508152602001906001019061150f565b50505050905090565b600760009054906101000a900460ff1681565b6060600280548060200260200160405190810160405280929190818152602001828054801561176357602002820191906000526020600020905b8160009054906101000a900473ffffffffffffffffffffffffffffffffffffffff1673ffffffffffffffffffffffffffffffffffffffff1681526020019060010190808311611719575b5050505050905090565b6004818154811061177d57600080fd5b906000526020600020016000915054906101000a900473ffffffffffffffffffffffffffffffffffffffff1681565b60008054906101000a900473ffffffffffffffffffffffffffffffffffffffff1673ffffffffffffffffffffffffffffffffffffffff163373ffffffffffffffffffffffffffffffffffffffff161461183a576040517f08c379a00000000000000000000000000000000000000000000000000000000081526004016118319061273e565b60405180910390fd5b6000806006805490501415611852576000905061185b565b60068054905090505b60066040518061010001604052808381526020018481526020013373ffffffffffffffffffffffffffffffffffffffff168152602001600060ff168152602001600060ff168152602001600060ff168152602001600060ff16815260200160001515815250908060018154018082558091505060019003906000526020600020906003020160009091909190915060008201518160000155602082015181600101908051906020019061190f929190612044565b5060408201518160020160006101000a81548173ffffffffffffffffffffffffffffffffffffffff021916908373ffffffffffffffffffffffffffffffffffffffff16021790555060608201518160020160146101000a81548160ff021916908360ff16021790555060808201518160020160156101000a81548160ff021916908360ff16021790555060a08201518160020160166101000a81548160ff021916908360ff16021790555060c08201518160020160176101000a81548160ff021916908360ff16021790555060e08201518160020160186101000a81548160ff02191690831515021790555050505050565b60058181548110611a1157600080fd5b906000526020600020016000915054906101000a900473ffffffffffffffffffffffffffffffffffffffff1681565b60008054906101000a900473ffffffffffffffffffffffffffffffffffffffff1681565b600760019054906101000a900460ff1681565b606081604051602001611a8a91906125e6565b6040516020818303038152906040529050919050565b60008060009054906101000a900473ffffffffffffffffffffffffffffffffffffffff1673ffffffffffffffffffffffffffffffffffffffff163373ffffffffffffffffffffffffffffffffffffffff1614611b31576040517f08c379a0000000000000000000000000000000000000000000000000000000008152600401611b289061273e565b60405180910390fd5b600760009054906101000a900460ff1615611b78576000600760006101000a81548160ff021916908315150217905550600760009054906101000a900460ff169050611ba6565b6001600760006101000a81548160ff021916908315150217905550600760009054906101000a900460ff1690505b90565b60028181548110611bb957600080fd5b906000526020600020016000915054906101000a900473ffffffffffffffffffffffffffffffffffffffff1681565b60606003805480602002602001604051908101604052809291908181526020018280548015611c6c57602002820191906000526020600020905b8160009054906101000a900473ffffffffffffffffffffffffffffffffffffffff1673ffffffffffffffffffffffffffffffffffffffff1681526020019060010190808311611c22575b5050505050905090565b60016020528060005260406000206000915090508060000160009054906101000a900460ff16908060000160019054906101000a900460ff16908060010154908060020160009054906101000a900473ffffffffffffffffffffffffffffffffffffffff16905084565b60068181548110611cf057600080fd5b9060005260206000209060030201600091509050806000015490806001018054611d19906129f2565b80601f0160208091040260200160405190810160405280929190818152602001828054611d45906129f2565b8015611d925780601f10611d6757610100808354040283529160200191611d92565b820191906000526020600020905b815481529060010190602001808311611d7557829003601f168201915b5050505050908060020160009054906101000a900473ffffffffffffffffffffffffffffffffffffffff16908060020160149054906101000a900460ff16908060020160159054906101000a900460ff16908060020160169054906101000a900460ff16908060020160179054906101000a900460ff16908060020160189054906101000a900460ff16905088565b600080600090505b6002805490508160ff161015611ef15760028160ff1681548110611e76577f4e487b7100000000000000000000000000000000000000000000000000000000600052603260045260246000fd5b9060005260206000200160009054906101000a900473ffffffffffffffffffffffffffffffffffffffff1673ffffffffffffffffffffffffffffffffffffffff168373ffffffffffffffffffffffffffffffffffffffff161415611ede576001915050611ef7565b8080611ee990612a55565b915050611e29565b50600090505b919050565b60008060009054906101000a900473ffffffffffffffffffffffffffffffffffffffff1673ffffffffffffffffffffffffffffffffffffffff163373ffffffffffffffffffffffffffffffffffffffff1614611f8d576040517f08c379a0000000000000000000000000000000000000000000000000000000008152600401611f849061273e565b60405180910390fd5b600760019054906101000a900460ff1615611fd4576000600760016101000a81548160ff021916908315150217905550600760019054906101000a900460ff169050612002565b6001600760016101000a81548160ff021916908315150217905550600760019054906101000a900460ff1690505b90565b6003818154811061201557600080fd5b906000526020600020016000915054906101000a900473ffffffffffffffffffffffffffffffffffffffff1681565b828054612050906129f2565b90600052602060002090601f01602090048101928261207257600085556120b9565b82601f1061208b57805160ff19168380011785556120b9565b828001600101855582156120b9579182015b828111156120b857825182559160200191906001019061209d565b5b5090506120c691906120ca565b5090565b5b808211156120e35760008160009055506001016120cb565b5090565b60006120fa6120f584612808565b6127e3565b90508281526020810184848401111561211257600080fd5b61211d8482856129b0565b509392505050565b60008135905061213481612c04565b92915050565b600082601f83011261214b57600080fd5b813561215b8482602086016120e7565b91505092915050565b60008135905061217381612c1b565b92915050565b60006020828403121561218b57600080fd5b600061219984828501612125565b91505092915050565b600080604083850312156121b557600080fd5b60006121c385828601612125565b92505060206121d485828601612164565b9150509250929050565b6000602082840312156121f057600080fd5b600082013567ffffffffffffffff81111561220a57600080fd5b6122168482850161213a565b91505092915050565b60006020828403121561223157600080fd5b600061223f84828501612164565b91505092915050565b60006122548383612274565b60208301905092915050565b600061226c83836124fa565b905092915050565b61227d81612936565b82525050565b61228c81612936565b82525050565b600061229d82612859565b6122a7818561289f565b93506122b283612839565b8060005b838110156122e35781516122ca8882612248565b97506122d583612885565b9250506001810190506122b6565b5085935050505092915050565b60006122fb82612864565b61230581856128b0565b93508360208202850161231785612849565b8060005b8581101561235357848403895281516123348582612260565b945061233f83612892565b925060208a0199505060018101905061231b565b50829750879550505050505092915050565b61236e81612948565b82525050565b61237d81612948565b82525050565b600061238e8261286f565b61239881856128c1565b93506123a88185602086016129bf565b6123b181612b3b565b840191505092915050565b6123c58161299e565b82525050565b60006123d68261287a565b6123e081856128d2565b93506123f08185602086016129bf565b6123f981612b3b565b840191505092915050565b600061240f8261287a565b61241981856128e3565b93506124298185602086016129bf565b61243281612b3b565b840191505092915050565b60006124488261287a565b61245281856128f4565b93506124628185602086016129bf565b80840191505092915050565b600061247b601c836128e3565b915061248682612b4c565b602082019050919050565b600061249e6019836128e3565b91506124a982612b75565b602082019050919050565b60006124c16015836128e3565b91506124cc82612b9e565b602082019050919050565b60006124e4601a836128e3565b91506124ef82612bc7565b602082019050919050565b60006101008301600083015161251360008601826125aa565b506020830151848203602086015261252b82826123cb565b91505060408301516125406040860182612274565b50606083015161255360608601826125c8565b50608083015161256660808601826125c8565b5060a083015161257960a08601826125c8565b5060c083015161258c60c08601826125c8565b5060e083015161259f60e0860182612365565b508091505092915050565b6125b381612987565b82525050565b6125c281612987565b82525050565b6125d181612991565b82525050565b6125e081612991565b82525050565b60006125f2828461243d565b915081905092915050565b60006020820190506126126000830184612283565b92915050565b600060208201905081810360008301526126328184612292565b905092915050565b6000602082019050818103600083015261265481846122f0565b905092915050565b60006020820190506126716000830184612374565b92915050565b600060208201905081810360008301526126918184612383565b905092915050565b60006080820190506126ae60008301876123bc565b6126bb6020830186612374565b6126c860408301856125b9565b6126d56060830184612283565b95945050505050565b600060208201905081810360008301526126f78161246e565b9050919050565b6000602082019050818103600083015261271781612491565b9050919050565b60006020820190508181036000830152612737816124b4565b9050919050565b60006020820190508181036000830152612757816124d7565b9050919050565b600061010082019050612774600083018b6125b9565b8181036020830152612786818a612404565b90506127956040830189612283565b6127a260608301886125d7565b6127af60808301876125d7565b6127bc60a08301866125d7565b6127c960c08301856125d7565b6127d660e0830184612374565b9998505050505050505050565b60006127ed6127fe565b90506127f98282612a24565b919050565b6000604051905090565b600067ffffffffffffffff82111561282357612822612b0c565b5b61282c82612b3b565b9050602081019050919050565b6000819050602082019050919050565b6000819050602082019050919050565b600081519050919050565b600081519050919050565b600081519050919050565b600081519050919050565b6000602082019050919050565b6000602082019050919050565b600082825260208201905092915050565b600082825260208201905092915050565b600082825260208201905092915050565b600082825260208201905092915050565b600082825260208201905092915050565b600081905092915050565b600061290a82612991565b915061291583612991565b92508260ff0382111561292b5761292a612a7f565b5b828201905092915050565b600061294182612967565b9050919050565b60008115159050919050565b600081905061296282612bf0565b919050565b600073ffffffffffffffffffffffffffffffffffffffff82169050919050565b6000819050919050565b600060ff82169050919050565b60006129a982612954565b9050919050565b82818337600083830152505050565b60005b838110156129dd5780820151818401526020810190506129c2565b838111156129ec576000848401525b50505050565b60006002820490506001821680612a0a57607f821691505b60208210811415612a1e57612a1d612add565b5b50919050565b612a2d82612b3b565b810181811067ffffffffffffffff82111715612a4c57612a4b612b0c565b5b80604052505050565b6000612a6082612991565b915060ff821415612a7457612a73612a7f565b5b600182019050919050565b7f4e487b7100000000000000000000000000000000000000000000000000000000600052601160045260246000fd5b7f4e487b7100000000000000000000000000000000000000000000000000000000600052602160045260246000fd5b7f4e487b7100000000000000000000000000000000000000000000000000000000600052602260045260246000fd5b7f4e487b7100000000000000000000000000000000000000000000000000000000600052604160045260246000fd5b6000601f19601f8301169050919050565b7f566f74696e672053657373696f6e206973206e6f742061637469766500000000600082015250565b7f4973206e6f74207265676973746572656420746f20766f746500000000000000600082015250565b7f596f75206861766520766f746564206265666f72650000000000000000000000600082015250565b7f4f6e6c792043686169726d616e2063616e20646f20746869732e000000000000600082015250565b60048110612c0157612c00612aae565b5b50565b612c0d81612936565b8114612c1857600080fd5b50565b612c2481612987565b8114612c2f57600080fd5b5056fea26469706673582212202feffa7ebec23f3167482c3782782abea4930d02d3c9c8b3a397db3097d527b964736f6c63430008040033",
  "linkReferences": {},
  "deployedLinkReferences": {}
}