{
  "_format": "hh-sol-artifact-1",
  "contractName": "SimpleVoting",
  "sourceName": "contracts/SimpleVoting.sol",
  "abi": [
    {
      "inputs": [],
      "stateMutability": "nonpayable",
      "type": "constructor"
    },
    {
      "inputs": [
        {
          "internalType": "uint256",
          "name": "",
          "type": "uint256"
        }
      ],
      "name": "BODList",
      "outputs": [
        {
          "internalType": "address",
          "name": "",
          "type": "address"
        }
      ],
      "stateMutability": "view",
      "type": "function"
    },
    {
      "inputs": [
        {
          "internalType": "uint256",
          "name": "",
          "type": "uint256"
        }
      ],
      "name": "candidatesList",
      "outputs": [
        {
          "internalType": "uint256",
          "name": "candidateID",
          "type": "uint256"
        },
        {
          "internalType": "string",
          "name": "candidateName",
          "type": "string"
        },
        {
          "internalType": "uint8",
          "name": "votesReceived",
          "type": "uint8"
        },
        {
          "internalType": "address",
          "name": "registeredAddress",
          "type": "address"
        }
      ],
      "stateMutability": "view",
      "type": "function"
    },
    {
      "inputs": [],
      "name": "chairman",
      "outputs": [
        {
          "internalType": "address",
          "name": "",
          "type": "address"
        }
      ],
      "stateMutability": "view",
      "type": "function"
    },
    {
      "inputs": [
        {
          "internalType": "string",
          "name": "_candidateName",
          "type": "string"
        }
      ],
      "name": "createCandidate",
      "outputs": [],
      "stateMutability": "nonpayable",
      "type": "function"
    },
    {
      "inputs": [
        {
          "internalType": "address",
          "name": "_address",
          "type": "address"
        },
        {
          "internalType": "enum SimpleVoting.Role",
          "name": "_role",
          "type": "uint8"
        }
      ],
      "name": "createStakeHolder",
      "outputs": [],
      "stateMutability": "nonpayable",
      "type": "function"
    },
    {
      "inputs": [],
      "name": "getListOfCandidates",
      "outputs": [
        {
          "components": [
            {
              "internalType": "uint256",
              "name": "candidateID",
              "type": "uint256"
            },
            {
              "internalType": "string",
              "name": "candidateName",
              "type": "string"
            },
            {
              "internalType": "uint8",
              "name": "votesReceived",
              "type": "uint8"
            },
            {
              "internalType": "address",
              "name": "registeredAddress",
              "type": "address"
            }
          ],
          "internalType": "struct SimpleVoting.Candidate[]",
          "name": "",
          "type": "tuple[]"
        }
      ],
      "stateMutability": "view",
      "type": "function"
    },
    {
      "inputs": [
        {
          "internalType": "address",
          "name": "_address",
          "type": "address"
        }
      ],
      "name": "isAStakeholder",
      "outputs": [
        {
          "internalType": "bool",
          "name": "",
          "type": "bool"
        }
      ],
      "stateMutability": "view",
      "type": "function"
    },
    {
      "inputs": [],
      "name": "resultsActive",
      "outputs": [
        {
          "internalType": "bool",
          "name": "",
          "type": "bool"
        }
      ],
      "stateMutability": "view",
      "type": "function"
    },
    {
      "inputs": [
        {
          "internalType": "address",
          "name": "",
          "type": "address"
        }
      ],
      "name": "stakeholders",
      "outputs": [
        {
          "internalType": "enum SimpleVoting.Role",
          "name": "role",
          "type": "uint8"
        },
        {
          "internalType": "bool",
          "name": "voted",
          "type": "bool"
        },
        {
          "internalType": "uint256",
          "name": "candidateChosen",
          "type": "uint256"
        },
        {
          "internalType": "address",
          "name": "registeredAddress",
          "type": "address"
        }
      ],
      "stateMutability": "view",
      "type": "function"
    },
    {
      "inputs": [
        {
          "internalType": "uint256",
          "name": "",
          "type": "uint256"
        }
      ],
      "name": "stakeholdersList",
      "outputs": [
        {
          "internalType": "address",
          "name": "",
          "type": "address"
        }
      ],
      "stateMutability": "view",
      "type": "function"
    },
    {
      "inputs": [
        {
          "internalType": "uint256",
          "name": "",
          "type": "uint256"
        }
      ],
      "name": "studentList",
      "outputs": [
        {
          "internalType": "address",
          "name": "",
          "type": "address"
        }
      ],
      "stateMutability": "view",
      "type": "function"
    },
    {
      "inputs": [
        {
          "internalType": "uint256",
          "name": "",
          "type": "uint256"
        }
      ],
      "name": "teachersList",
      "outputs": [
        {
          "internalType": "address",
          "name": "",
          "type": "address"
        }
      ],
      "stateMutability": "view",
      "type": "function"
    },
    {
      "inputs": [
        {
          "internalType": "string",
          "name": "_name",
          "type": "string"
        }
      ],
      "name": "toBytes",
      "outputs": [
        {
          "internalType": "bytes",
          "name": "",
          "type": "bytes"
        }
      ],
      "stateMutability": "pure",
      "type": "function"
    },
    {
      "inputs": [],
      "name": "toggleResult",
      "outputs": [
        {
          "internalType": "bool",
          "name": "",
          "type": "bool"
        }
      ],
      "stateMutability": "nonpayable",
      "type": "function"
    },
    {
      "inputs": [],
      "name": "toggleVoting",
      "outputs": [
        {
          "internalType": "bool",
          "name": "",
          "type": "bool"
        }
      ],
      "stateMutability": "nonpayable",
      "type": "function"
    },
    {
      "inputs": [
        {
          "internalType": "uint256",
          "name": "_candidateID",
          "type": "uint256"
        }
      ],
      "name": "vote",
      "outputs": [],
      "stateMutability": "nonpayable",
      "type": "function"
    },
    {
      "inputs": [],
      "name": "votingActive",
      "outputs": [
        {
          "internalType": "bool",
          "name": "",
          "type": "bool"
        }
      ],
      "stateMutability": "view",
      "type": "function"
    }
  ],
  "bytecode": "0x608060405234801561001057600080fd5b50336000806101000a81548173ffffffffffffffffffffffffffffffffffffffff021916908373ffffffffffffffffffffffffffffffffffffffff1602179055506000600760006101000a81548160ff0219169083151502179055506000600760016101000a81548160ff021916908315150217905550611eed806100966000396000f3fe608060405234801561001057600080fd5b506004361061010b5760003560e01c80639f2e140e116100a2578063c07cfca911610071578063c07cfca9146102ba578063df2d5ec7146102ed578063e2cc268014610320578063f0c68c2214610350578063f8d18a7b1461036e5761010b565b80639f2e140e14610220578063a09ddf2814610250578063aae3bd471461026c578063ad39a1fa1461028a5761010b565b80635fba7a56116100de5780635fba7a56146101985780637df221e9146101b457806387f7b975146101e457806395890303146102025761010b565b80630121b93f146101105780632f3868ca1461012c578063408e27271461014a5780634806906014610168575b600080fd5b61012a60048036038101906101259190611709565b61039e565b005b61013461060d565b60405161014191906119ea565b60405180910390f35b61015261077b565b60405161015f9190611a0c565b60405180910390f35b610182600480360381019061017d9190611709565b61078e565b60405161018f91906119cf565b60405180910390f35b6101b260048036038101906101ad91906116c8565b6107cd565b005b6101ce60048036038101906101c99190611709565b610977565b6040516101db91906119cf565b60405180910390f35b6101ec6109b6565b6040516101f991906119cf565b60405180910390f35b61020a6109da565b6040516102179190611a0c565b60405180910390f35b61023a600480360381019061023591906116c8565b6109ed565b6040516102479190611a27565b60405180910390f35b61026a6004803603810190610265919061168c565b610a16565b005b61027461104f565b6040516102819190611a0c565b60405180910390f35b6102a4600480360381019061029f9190611709565b611158565b6040516102b191906119cf565b60405180910390f35b6102d460048036038101906102cf9190611663565b611197565b6040516102e49493929190611a49565b60405180910390f35b61030760048036038101906103029190611709565b611201565b6040516103179493929190611ace565b60405180910390f35b61033a60048036038101906103359190611663565b6112f6565b6040516103479190611a0c565b60405180910390f35b6103586113d1565b6040516103659190611a0c565b60405180910390f35b61038860048036038101906103839190611709565b6114da565b60405161039591906119cf565b60405180910390f35b6103a7336112f6565b6103e6576040517f08c379a00000000000000000000000000000000000000000000000000000000081526004016103dd90611a8e565b60405180910390fd5b60018060003373ffffffffffffffffffffffffffffffffffffffff1673ffffffffffffffffffffffffffffffffffffffff16815260200190815260200160002060000160016101000a81548160ff02191690831515021790555080600160003373ffffffffffffffffffffffffffffffffffffffff1673ffffffffffffffffffffffffffffffffffffffff168152602001908152602001600020600101819055506000600682815481106104c3577f4e487b7100000000000000000000000000000000000000000000000000000000600052603260045260246000fd5b9060005260206000209060030201604051806080016040529081600082015481526020016001820180546104f690611cb9565b80601f016020809104026020016040519081016040528092919081815260200182805461052290611cb9565b801561056f5780601f106105445761010080835404028352916020019161056f565b820191906000526020600020905b81548152906001019060200180831161055257829003601f168201915b505050505081526020016002820160009054906101000a900460ff1660ff1660ff1681526020016002820160019054906101000a900473ffffffffffffffffffffffffffffffffffffffff1673ffffffffffffffffffffffffffffffffffffffff1673ffffffffffffffffffffffffffffffffffffffff168152505090508060400180518091906105ff90611d1c565b60ff1660ff16815250505050565b60606006805480602002602001604051908101604052809291908181526020016000905b8282101561077257838290600052602060002090600302016040518060800160405290816000820154815260200160018201805461066e90611cb9565b80601f016020809104026020016040519081016040528092919081815260200182805461069a90611cb9565b80156106e75780601f106106bc576101008083540402835291602001916106e7565b820191906000526020600020905b8154815290600101906020018083116106ca57829003601f168201915b505050505081526020016002820160009054906101000a900460ff1660ff1660ff1681526020016002820160019054906101000a900473ffffffffffffffffffffffffffffffffffffffff1673ffffffffffffffffffffffffffffffffffffffff1673ffffffffffffffffffffffffffffffffffffffff168152505081526020019060010190610631565b50505050905090565b600760009054906101000a900460ff1681565b6004818154811061079e57600080fd5b906000526020600020016000915054906101000a900473ffffffffffffffffffffffffffffffffffffffff1681565b60008054906101000a900473ffffffffffffffffffffffffffffffffffffffff1673ffffffffffffffffffffffffffffffffffffffff163373ffffffffffffffffffffffffffffffffffffffff161461085b576040517f08c379a000000000000000000000000000000000000000000000000000000000815260040161085290611aae565b60405180910390fd5b6000806006805490501415610873576000905061087c565b60068054905090505b60066040518060800160405280838152602001848152602001600060ff1681526020013373ffffffffffffffffffffffffffffffffffffffff168152509080600181540180825580915050600190039060005260206000209060030201600090919091909150600082015181600001556020820151816001019080519060200190610908929190611519565b5060408201518160020160006101000a81548160ff021916908360ff16021790555060608201518160020160016101000a81548173ffffffffffffffffffffffffffffffffffffffff021916908373ffffffffffffffffffffffffffffffffffffffff16021790555050505050565b6005818154811061098757600080fd5b906000526020600020016000915054906101000a900473ffffffffffffffffffffffffffffffffffffffff1681565b60008054906101000a900473ffffffffffffffffffffffffffffffffffffffff1681565b600760019054906101000a900460ff1681565b606081604051602001610a0091906119b8565b6040516020818303038152906040529050919050565b60008054906101000a900473ffffffffffffffffffffffffffffffffffffffff1673ffffffffffffffffffffffffffffffffffffffff163373ffffffffffffffffffffffffffffffffffffffff1614610aa4576040517f08c379a0000000000000000000000000000000000000000000000000000000008152600401610a9b90611aae565b60405180910390fd5b6040518060800160405280826002811115610ae8577f4e487b7100000000000000000000000000000000000000000000000000000000600052602160045260246000fd5b8152602001600015158152602001600881526020013373ffffffffffffffffffffffffffffffffffffffff16815250600160008473ffffffffffffffffffffffffffffffffffffffff1673ffffffffffffffffffffffffffffffffffffffff16815260200190815260200160002060008201518160000160006101000a81548160ff02191690836002811115610ba7577f4e487b7100000000000000000000000000000000000000000000000000000000600052602160045260246000fd5b021790555060208201518160000160016101000a81548160ff0219169083151502179055506040820151816001015560608201518160020160006101000a81548173ffffffffffffffffffffffffffffffffffffffff021916908373ffffffffffffffffffffffffffffffffffffffff16021790555090505060006002811115610c5a577f4e487b7100000000000000000000000000000000000000000000000000000000600052602160045260246000fd5b6002811115610c92577f4e487b7100000000000000000000000000000000000000000000000000000000600052602160045260246000fd5b600160008473ffffffffffffffffffffffffffffffffffffffff1673ffffffffffffffffffffffffffffffffffffffff16815260200190815260200160002060000160009054906101000a900460ff166002811115610d1a577f4e487b7100000000000000000000000000000000000000000000000000000000600052602160045260246000fd5b1415610d84576003829080600181540180825580915050600190039060005260206000200160009091909190916101000a81548173ffffffffffffffffffffffffffffffffffffffff021916908373ffffffffffffffffffffffffffffffffffffffff1602179055505b60016002811115610dbe577f4e487b7100000000000000000000000000000000000000000000000000000000600052602160045260246000fd5b6002811115610df6577f4e487b7100000000000000000000000000000000000000000000000000000000600052602160045260246000fd5b600160008473ffffffffffffffffffffffffffffffffffffffff1673ffffffffffffffffffffffffffffffffffffffff16815260200190815260200160002060000160009054906101000a900460ff166002811115610e7e577f4e487b7100000000000000000000000000000000000000000000000000000000600052602160045260246000fd5b1415610ee8576004829080600181540180825580915050600190039060005260206000200160009091909190916101000a81548173ffffffffffffffffffffffffffffffffffffffff021916908373ffffffffffffffffffffffffffffffffffffffff1602179055505b600280811115610f21577f4e487b7100000000000000000000000000000000000000000000000000000000600052602160045260246000fd5b6002811115610f59577f4e487b7100000000000000000000000000000000000000000000000000000000600052602160045260246000fd5b600160008473ffffffffffffffffffffffffffffffffffffffff1673ffffffffffffffffffffffffffffffffffffffff16815260200190815260200160002060000160009054906101000a900460ff166002811115610fe1577f4e487b7100000000000000000000000000000000000000000000000000000000600052602160045260246000fd5b141561104b576005829080600181540180825580915050600190039060005260206000200160009091909190916101000a81548173ffffffffffffffffffffffffffffffffffffffff021916908373ffffffffffffffffffffffffffffffffffffffff1602179055505b5050565b60008060009054906101000a900473ffffffffffffffffffffffffffffffffffffffff1673ffffffffffffffffffffffffffffffffffffffff163373ffffffffffffffffffffffffffffffffffffffff16146110e0576040517f08c379a00000000000000000000000000000000000000000000000000000000081526004016110d790611aae565b60405180910390fd5b600760009054906101000a900460ff1615611127576000600760006101000a81548160ff021916908315150217905550600760009054906101000a900460ff169050611155565b6001600760006101000a81548160ff021916908315150217905550600760009054906101000a900460ff1690505b90565b6002818154811061116857600080fd5b906000526020600020016000915054906101000a900473ffffffffffffffffffffffffffffffffffffffff1681565b60016020528060005260406000206000915090508060000160009054906101000a900460ff16908060000160019054906101000a900460ff16908060010154908060020160009054906101000a900473ffffffffffffffffffffffffffffffffffffffff16905084565b6006818154811061121157600080fd5b906000526020600020906003020160009150905080600001549080600101805461123a90611cb9565b80601f016020809104026020016040519081016040528092919081815260200182805461126690611cb9565b80156112b35780601f10611288576101008083540402835291602001916112b3565b820191906000526020600020905b81548152906001019060200180831161129657829003601f168201915b5050505050908060020160009054906101000a900460ff16908060020160019054906101000a900473ffffffffffffffffffffffffffffffffffffffff16905084565b600080600090505b6002805490508160ff1610156113c65760028160ff168154811061134b577f4e487b7100000000000000000000000000000000000000000000000000000000600052603260045260246000fd5b9060005260206000200160009054906101000a900473ffffffffffffffffffffffffffffffffffffffff1673ffffffffffffffffffffffffffffffffffffffff168373ffffffffffffffffffffffffffffffffffffffff1614156113b35760019150506113cc565b80806113be90611d1c565b9150506112fe565b50600090505b919050565b60008060009054906101000a900473ffffffffffffffffffffffffffffffffffffffff1673ffffffffffffffffffffffffffffffffffffffff163373ffffffffffffffffffffffffffffffffffffffff1614611462576040517f08c379a000000000000000000000000000000000000000000000000000000000815260040161145990611aae565b60405180910390fd5b600760019054906101000a900460ff16156114a9576000600760016101000a81548160ff021916908315150217905550600760019054906101000a900460ff1690506114d7565b6001600760016101000a81548160ff021916908315150217905550600760019054906101000a900460ff1690505b90565b600381815481106114ea57600080fd5b906000526020600020016000915054906101000a900473ffffffffffffffffffffffffffffffffffffffff1681565b82805461152590611cb9565b90600052602060002090601f016020900481019282611547576000855561158e565b82601f1061156057805160ff191683800117855561158e565b8280016001018555821561158e579182015b8281111561158d578251825591602001919060010190611572565b5b50905061159b919061159f565b5090565b5b808211156115b85760008160009055506001016115a0565b5090565b60006115cf6115ca84611b3f565b611b1a565b9050828152602081018484840111156115e757600080fd5b6115f2848285611c77565b509392505050565b60008135905061160981611e79565b92915050565b60008135905061161e81611e90565b92915050565b600082601f83011261163557600080fd5b81356116458482602086016115bc565b91505092915050565b60008135905061165d81611ea0565b92915050565b60006020828403121561167557600080fd5b6000611683848285016115fa565b91505092915050565b6000806040838503121561169f57600080fd5b60006116ad858286016115fa565b92505060206116be8582860161160f565b9150509250929050565b6000602082840312156116da57600080fd5b600082013567ffffffffffffffff8111156116f457600080fd5b61170084828501611624565b91505092915050565b60006020828403121561171b57600080fd5b60006117298482850161164e565b91505092915050565b600061173e8383611919565b905092915050565b61174f81611bfd565b82525050565b61175e81611bfd565b82525050565b600061176f82611b80565b6117798185611bae565b93508360208202850161178b85611b70565b8060005b858110156117c757848403895281516117a88582611732565b94506117b383611ba1565b925060208a0199505060018101905061178f565b50829750879550505050505092915050565b6117e281611c0f565b82525050565b60006117f382611b8b565b6117fd8185611bbf565b935061180d818560208601611c86565b61181681611e02565b840191505092915050565b61182a81611c65565b82525050565b600061183b82611b96565b6118458185611bd0565b9350611855818560208601611c86565b61185e81611e02565b840191505092915050565b600061187482611b96565b61187e8185611be1565b935061188e818560208601611c86565b61189781611e02565b840191505092915050565b60006118ad82611b96565b6118b78185611bf2565b93506118c7818560208601611c86565b80840191505092915050565b60006118e0601983611be1565b91506118eb82611e13565b602082019050919050565b6000611903601a83611be1565b915061190e82611e3c565b602082019050919050565b6000608083016000830151611931600086018261197c565b50602083015184820360208601526119498282611830565b915050604083015161195e604086018261199a565b5060608301516119716060860182611746565b508091505092915050565b61198581611c4e565b82525050565b61199481611c4e565b82525050565b6119a381611c58565b82525050565b6119b281611c58565b82525050565b60006119c482846118a2565b915081905092915050565b60006020820190506119e46000830184611755565b92915050565b60006020820190508181036000830152611a048184611764565b905092915050565b6000602082019050611a2160008301846117d9565b92915050565b60006020820190508181036000830152611a4181846117e8565b905092915050565b6000608082019050611a5e6000830187611821565b611a6b60208301866117d9565b611a78604083018561198b565b611a856060830184611755565b95945050505050565b60006020820190508181036000830152611aa7816118d3565b9050919050565b60006020820190508181036000830152611ac7816118f6565b9050919050565b6000608082019050611ae3600083018761198b565b8181036020830152611af58186611869565b9050611b0460408301856119a9565b611b116060830184611755565b95945050505050565b6000611b24611b35565b9050611b308282611ceb565b919050565b6000604051905090565b600067ffffffffffffffff821115611b5a57611b59611dd3565b5b611b6382611e02565b9050602081019050919050565b6000819050602082019050919050565b600081519050919050565b600081519050919050565b600081519050919050565b6000602082019050919050565b600082825260208201905092915050565b600082825260208201905092915050565b600082825260208201905092915050565b600082825260208201905092915050565b600081905092915050565b6000611c0882611c2e565b9050919050565b60008115159050919050565b6000819050611c2982611e65565b919050565b600073ffffffffffffffffffffffffffffffffffffffff82169050919050565b6000819050919050565b600060ff82169050919050565b6000611c7082611c1b565b9050919050565b82818337600083830152505050565b60005b83811015611ca4578082015181840152602081019050611c89565b83811115611cb3576000848401525b50505050565b60006002820490506001821680611cd157607f821691505b60208210811415611ce557611ce4611da4565b5b50919050565b611cf482611e02565b810181811067ffffffffffffffff82111715611d1357611d12611dd3565b5b80604052505050565b6000611d2782611c58565b915060ff821415611d3b57611d3a611d46565b5b600182019050919050565b7f4e487b7100000000000000000000000000000000000000000000000000000000600052601160045260246000fd5b7f4e487b7100000000000000000000000000000000000000000000000000000000600052602160045260246000fd5b7f4e487b7100000000000000000000000000000000000000000000000000000000600052602260045260246000fd5b7f4e487b7100000000000000000000000000000000000000000000000000000000600052604160045260246000fd5b6000601f19601f8301169050919050565b7f4973206e6f74207265676973746572656420746f20766f746500000000000000600082015250565b7f4f6e6c792043686169726d616e2063616e20646f20746869732e000000000000600082015250565b60038110611e7657611e75611d75565b5b50565b611e8281611bfd565b8114611e8d57600080fd5b50565b60038110611e9d57600080fd5b50565b611ea981611c4e565b8114611eb457600080fd5b5056fea264697066735822122040b8a61055c04d7f30b11afd80159037e3d2e2295ab65949cdd04a8914ce680064736f6c63430008040033",
  "linkReferences": {},
  "deployedLinkReferences": {}
}